{
  "_format": "hh-sol-artifact-1",
  "contractName": "EmergencySystem",
  "sourceName": "contracts/emergency.sol",
  "abi": [
    {
      "inputs": [],
      "stateMutability": "nonpayable",
      "type": "constructor"
    },
    {
      "anonymous": false,
      "inputs": [
        {
          "indexed": true,
          "internalType": "uint256",
          "name": "emergencyId",
          "type": "uint256"
        },
        {
          "indexed": true,
          "internalType": "address",
          "name": "ambulance",
          "type": "address"
        }
      ],
      "name": "AmbulanceAssigned",
      "type": "event"
    },
    {
      "anonymous": false,
      "inputs": [
        {
          "indexed": true,
          "internalType": "address",
          "name": "ambulance",
          "type": "address"
        },
        {
          "indexed": false,
          "internalType": "int256",
          "name": "latitude",
          "type": "int256"
        },
        {
          "indexed": false,
          "internalType": "int256",
          "name": "longitude",
          "type": "int256"
        }
      ],
      "name": "AmbulanceLocationUpdated",
      "type": "event"
    },
    {
      "anonymous": false,
      "inputs": [
        {
          "indexed": true,
          "internalType": "uint256",
          "name": "emergencyId",
          "type": "uint256"
        },
        {
          "indexed": true,
          "internalType": "address",
          "name": "driver",
          "type": "address"
        },
        {
          "indexed": true,
          "internalType": "address",
          "name": "adminAddress",
          "type": "address"
        }
      ],
      "name": "DirectConnectionEstablished",
      "type": "event"
    },
    {
      "anonymous": false,
      "inputs": [
        {
          "indexed": true,
          "internalType": "uint256",
          "name": "id",
          "type": "uint256"
        },
        {
          "indexed": true,
          "internalType": "address",
          "name": "caller",
          "type": "address"
        },
        {
          "indexed": false,
          "internalType": "string",
          "name": "location",
          "type": "string"
        }
      ],
      "name": "EmergencyCreated",
      "type": "event"
    },
    {
      "anonymous": false,
      "inputs": [
        {
          "indexed": true,
          "internalType": "uint256",
          "name": "emergencyId",
          "type": "uint256"
        }
      ],
      "name": "EmergencyResolved",
      "type": "event"
    },
    {
      "anonymous": false,
      "inputs": [
        {
          "indexed": true,
          "internalType": "uint256",
          "name": "emergencyId",
          "type": "uint256"
        },
        {
          "indexed": false,
          "internalType": "uint256",
          "name": "count",
          "type": "uint256"
        }
      ],
      "name": "NearbyAmbulancesIdentified",
      "type": "event"
    },
    {
      "anonymous": false,
      "inputs": [
        {
          "indexed": true,
          "internalType": "uint256",
          "name": "patientId",
          "type": "uint256"
        },
        {
          "indexed": true,
          "internalType": "address",
          "name": "walletAddress",
          "type": "address"
        },
        {
          "indexed": false,
          "internalType": "string",
          "name": "name",
          "type": "string"
        }
      ],
      "name": "PatientRegistered",
      "type": "event"
    },
    {
      "inputs": [
        {
          "internalType": "address",
          "name": "",
          "type": "address"
        }
      ],
      "name": "addressToPatientId",
      "outputs": [
        {
          "internalType": "uint256",
          "name": "",
          "type": "uint256"
        }
      ],
      "stateMutability": "view",
      "type": "function"
    },
    {
      "inputs": [],
      "name": "admin",
      "outputs": [
        {
          "internalType": "address",
          "name": "",
          "type": "address"
        }
      ],
      "stateMutability": "view",
      "type": "function"
    },
    {
      "inputs": [
        {
          "internalType": "address",
          "name": "",
          "type": "address"
        }
      ],
      "name": "ambulanceLocations",
      "outputs": [
        {
          "internalType": "int256",
          "name": "latitude",
          "type": "int256"
        },
        {
          "internalType": "int256",
          "name": "longitude",
          "type": "int256"
        },
        {
          "internalType": "uint256",
          "name": "lastUpdate",
          "type": "uint256"
        },
        {
          "internalType": "bool",
          "name": "isActive",
          "type": "bool"
        }
      ],
      "stateMutability": "view",
      "type": "function"
    },
    {
      "inputs": [
        {
          "internalType": "uint256",
          "name": "_emergencyId",
          "type": "uint256"
        },
        {
          "internalType": "address",
          "name": "_ambulance",
          "type": "address"
        }
      ],
      "name": "assignAmbulance",
      "outputs": [],
      "stateMutability": "nonpayable",
      "type": "function"
    },
    {
      "inputs": [
        {
          "internalType": "uint256",
          "name": "_emergencyId",
          "type": "uint256"
        },
        {
          "internalType": "int256",
          "name": "_latitude",
          "type": "int256"
        },
        {
          "internalType": "int256",
          "name": "_longitude",
          "type": "int256"
        }
      ],
      "name": "connectNearbyAmbulances",
      "outputs": [],
      "stateMutability": "nonpayable",
      "type": "function"
    },
    {
      "inputs": [
        {
          "internalType": "uint256",
          "name": "",
          "type": "uint256"
        },
        {
          "internalType": "uint256",
          "name": "",
          "type": "uint256"
        }
      ],
      "name": "directConnections",
      "outputs": [
        {
          "internalType": "address",
          "name": "ambulanceDriver",
          "type": "address"
        },
        {
          "internalType": "address",
          "name": "admin",
          "type": "address"
        },
        {
          "internalType": "uint256",
          "name": "emergencyId",
          "type": "uint256"
        },
        {
          "internalType": "uint256",
          "name": "connectedAt",
          "type": "uint256"
        },
        {
          "internalType": "bool",
          "name": "isActive",
          "type": "bool"
        }
      ],
      "stateMutability": "view",
      "type": "function"
    },
    {
      "inputs": [
        {
          "internalType": "uint256",
          "name": "",
          "type": "uint256"
        }
      ],
      "name": "emergencies",
      "outputs": [
        {
          "internalType": "uint256",
          "name": "id",
          "type": "uint256"
        },
        {
          "internalType": "address",
          "name": "caller",
          "type": "address"
        },
        {
          "internalType": "string",
          "name": "location",
          "type": "string"
        },
        {
          "internalType": "uint256",
          "name": "timestamp",
          "type": "uint256"
        },
        {
          "internalType": "bool",
          "name": "resolved",
          "type": "bool"
        },
        {
          "internalType": "address",
          "name": "assignedAmbulance",
          "type": "address"
        },
        {
          "internalType": "uint256",
          "name": "patientId",
          "type": "uint256"
        }
      ],
      "stateMutability": "view",
      "type": "function"
    },
    {
      "inputs": [],
      "name": "emergencyCount",
      "outputs": [
        {
          "internalType": "uint256",
          "name": "",
          "type": "uint256"
        }
      ],
      "stateMutability": "view",
      "type": "function"
    },
    {
      "inputs": [
        {
          "internalType": "uint256",
          "name": "_emergencyId",
          "type": "uint256"
        }
      ],
      "name": "getDirectConnections",
      "outputs": [
        {
          "components": [
            {
              "internalType": "address",
              "name": "ambulanceDriver",
              "type": "address"
            },
            {
              "internalType": "address",
              "name": "admin",
              "type": "address"
            },
            {
              "internalType": "uint256",
              "name": "emergencyId",
              "type": "uint256"
            },
            {
              "internalType": "uint256",
              "name": "connectedAt",
              "type": "uint256"
            },
            {
              "internalType": "bool",
              "name": "isActive",
              "type": "bool"
            }
          ],
          "internalType": "struct EmergencySystem.DirectConnection[]",
          "name": "",
          "type": "tuple[]"
        }
      ],
      "stateMutability": "view",
      "type": "function"
    },
    {
      "inputs": [
        {
          "internalType": "uint256",
          "name": "_emergencyId",
          "type": "uint256"
        }
      ],
      "name": "getNearbyAmbulances",
      "outputs": [
        {
          "internalType": "address[]",
          "name": "",
          "type": "address[]"
        }
      ],
      "stateMutability": "view",
      "type": "function"
    },
    {
      "inputs": [
        {
          "internalType": "uint256",
          "name": "_patientId",
          "type": "uint256"
        }
      ],
      "name": "getPatient",
      "outputs": [
        {
          "components": [
            {
              "internalType": "uint256",
              "name": "patientId",
              "type": "uint256"
            },
            {
              "internalType": "address",
              "name": "walletAddress",
              "type": "address"
            },
            {
              "internalType": "string",
              "name": "name",
              "type": "string"
            },
            {
              "internalType": "string",
              "name": "location",
              "type": "string"
            },
            {
              "internalType": "uint256",
              "name": "registeredAt",
              "type": "uint256"
            },
            {
              "internalType": "bool",
              "name": "isActive",
              "type": "bool"
            },
            {
              "internalType": "uint256",
              "name": "emergencyCount",
              "type": "uint256"
            }
          ],
          "internalType": "struct EmergencySystem.Patient",
          "name": "",
          "type": "tuple"
        }
      ],
      "stateMutability": "view",
      "type": "function"
    },
    {
      "inputs": [
        {
          "internalType": "uint256",
          "name": "",
          "type": "uint256"
        },
        {
          "internalType": "uint256",
          "name": "",
          "type": "uint256"
        }
      ],
      "name": "nearbyAmbulances",
      "outputs": [
        {
          "internalType": "address",
          "name": "",
          "type": "address"
        }
      ],
      "stateMutability": "view",
      "type": "function"
    },
    {
      "inputs": [],
      "name": "patientCount",
      "outputs": [
        {
          "internalType": "uint256",
          "name": "",
          "type": "uint256"
        }
      ],
      "stateMutability": "view",
      "type": "function"
    },
    {
      "inputs": [
        {
          "internalType": "uint256",
          "name": "",
          "type": "uint256"
        }
      ],
      "name": "patients",
      "outputs": [
        {
          "internalType": "uint256",
          "name": "patientId",
          "type": "uint256"
        },
        {
          "internalType": "address",
          "name": "walletAddress",
          "type": "address"
        },
        {
          "internalType": "string",
          "name": "name",
          "type": "string"
        },
        {
          "internalType": "string",
          "name": "location",
          "type": "string"
        },
        {
          "internalType": "uint256",
          "name": "registeredAt",
          "type": "uint256"
        },
        {
          "internalType": "bool",
          "name": "isActive",
          "type": "bool"
        },
        {
          "internalType": "uint256",
          "name": "emergencyCount",
          "type": "uint256"
        }
      ],
      "stateMutability": "view",
      "type": "function"
    },
    {
      "inputs": [],
      "name": "proximityRadius",
      "outputs": [
        {
          "internalType": "int256",
          "name": "",
          "type": "int256"
        }
      ],
      "stateMutability": "view",
      "type": "function"
    },
    {
      "inputs": [
        {
          "internalType": "address",
          "name": "_ambulance",
          "type": "address"
        }
      ],
      "name": "registerAmbulance",
      "outputs": [],
      "stateMutability": "nonpayable",
      "type": "function"
    },
    {
      "inputs": [
        {
          "internalType": "string",
          "name": "_name",
          "type": "string"
        },
        {
          "internalType": "string",
          "name": "_location",
          "type": "string"
        }
      ],
      "name": "registerPatient",
      "outputs": [
        {
          "internalType": "uint256",
          "name": "",
          "type": "uint256"
        }
      ],
      "stateMutability": "nonpayable",
      "type": "function"
    },
    {
      "inputs": [
        {
          "internalType": "address",
          "name": "",
          "type": "address"
        }
      ],
      "name": "registeredAmbulances",
      "outputs": [
        {
          "internalType": "bool",
          "name": "",
          "type": "bool"
        }
      ],
      "stateMutability": "view",
      "type": "function"
    },
    {
      "inputs": [
        {
          "internalType": "string",
          "name": "_location",
          "type": "string"
        }
      ],
      "name": "reportEmergency",
      "outputs": [
        {
          "internalType": "uint256",
          "name": "",
          "type": "uint256"
        }
      ],
      "stateMutability": "nonpayable",
      "type": "function"
    },
    {
      "inputs": [
        {
          "internalType": "uint256",
          "name": "_emergencyId",
          "type": "uint256"
        }
      ],
      "name": "resolveEmergency",
      "outputs": [],
      "stateMutability": "nonpayable",
      "type": "function"
    },
    {
      "inputs": [
        {
          "internalType": "int256",
          "name": "_radius",
          "type": "int256"
        }
      ],
      "name": "setProximityRadius",
      "outputs": [],
      "stateMutability": "nonpayable",
      "type": "function"
    },
    {
      "inputs": [
        {
          "internalType": "int256",
          "name": "_latitude",
          "type": "int256"
        },
        {
          "internalType": "int256",
          "name": "_longitude",
          "type": "int256"
        }
      ],
      "name": "updateAmbulanceLocation",
      "outputs": [],
      "stateMutability": "nonpayable",
      "type": "function"
    },
    {
      "inputs": [
        {
          "internalType": "string",
          "name": "_location",
          "type": "string"
        }
      ],
      "name": "updatePatientLocation",
      "outputs": [],
      "stateMutability": "nonpayable",
      "type": "function"
    }
  ],
  "bytecode": "0x6080604052611388600a5534801561001657600080fd5b5033600960006101000a81548173ffffffffffffffffffffffffffffffffffffffff021916908373ffffffffffffffffffffffffffffffffffffffff1602179055506131dc806100676000396000f3fe608060405234801561001057600080fd5b506004361061014d5760003560e01c806393119a83116100c3578063c505568b1161007c578063c505568b1461040a578063c7eb09d514610426578063ed797d6014610456578063f09f0f6414610474578063f0acc5e614610490578063f851a440146104c35761014d565b806393119a831461030457806395cd952c1461033a57806396197d2014610370578063a0303c41146103a0578063ab9e0c11146103be578063b7502922146103ee5761014d565b8063547aea9b11610115578063547aea9b1461021e5780636c6430d11461023a5780637b60948f146102565780637d3a67961461027457806380911fa4146102a457806389dc58c6146102d45761014d565b80631c6410dc14610152578063233ef93b146101825780633ae78a9d1461019e5780633bd02751146101ce57806347ba8f6b146101ea575b600080fd5b61016c60048036038101906101679190611f3a565b6104e1565b6040516101799190611f82565b60405180910390f35b61019c60048036038101906101979190611f3a565b610501565b005b6101b860048036038101906101b391906120e3565b6105eb565b6040516101c59190612145565b60405180910390f35b6101e860048036038101906101e3919061218c565b610871565b005b61020460048036038101906101ff91906121cc565b610a00565b60405161021595949392919061221b565b60405180910390f35b610238600480360381019061023391906122a4565b610aa0565b005b610254600480360381019061024f91906122e4565b610c24565b005b61025e610cbe565b60405161026b9190612145565b60405180910390f35b61028e60048036038101906102899190612311565b610cc4565b60405161029b919061248d565b60405180910390f35b6102be60048036038101906102b991906124af565b610ea4565b6040516102cb9190612145565b60405180910390f35b6102ee60048036038101906102e99190612311565b6110f7565b6040516102fb919061263e565b60405180910390f35b61031e60048036038101906103199190612311565b611244565b60405161033197969594939291906126aa565b60405180910390f35b610354600480360381019061034f9190612311565b6113c3565b6040516103679796959493929190612727565b60405180910390f35b61038a60048036038101906103859190611f3a565b6114da565b6040516103979190612145565b60405180910390f35b6103a86114f2565b6040516103b59190612145565b60405180910390f35b6103d860048036038101906103d391906121cc565b6114f8565b6040516103e5919061279d565b60405180910390f35b61040860048036038101906104039190612311565b611546565b005b610424600480360381019061041f91906127b8565b611647565b005b610440600480360381019061043b9190612311565b611bb7565b60405161044d91906128ba565b60405180910390f35b61045e611c58565b60405161046b91906128eb565b60405180910390f35b61048e600480360381019061048991906120e3565b611c5e565b005b6104aa60048036038101906104a59190611f3a565b611d0d565b6040516104ba9493929190612906565b60405180910390f35b6104cb611d4a565b6040516104d8919061279d565b60405180910390f35b60016020528060005260406000206000915054906101000a900460ff1681565b600960009054906101000a900473ffffffffffffffffffffffffffffffffffffffff1673ffffffffffffffffffffffffffffffffffffffff163373ffffffffffffffffffffffffffffffffffffffff1614610591576040517f08c379a000000000000000000000000000000000000000000000000000000000815260040161058890612997565b60405180910390fd5b60018060008373ffffffffffffffffffffffffffffffffffffffff1673ffffffffffffffffffffffffffffffffffffffff16815260200190815260200160002060006101000a81548160ff02191690831515021790555050565b600080600660003373ffffffffffffffffffffffffffffffffffffffff1673ffffffffffffffffffffffffffffffffffffffff16815260200190815260200160002054905060008103610673576040517f08c379a000000000000000000000000000000000000000000000000000000000815260040161066a90612a03565b60405180910390fd5b6008600081548092919061068690612a52565b91905055506040518060e0016040528060085481526020013373ffffffffffffffffffffffffffffffffffffffff168152602001848152602001428152602001600015158152602001600073ffffffffffffffffffffffffffffffffffffffff1681526020018281525060008060085481526020019081526020016000206000820151816000015560208201518160010160006101000a81548173ffffffffffffffffffffffffffffffffffffffff021916908373ffffffffffffffffffffffffffffffffffffffff160217905550604082015181600201908161076a9190612ca6565b506060820151816003015560808201518160040160006101000a81548160ff02191690831515021790555060a08201518160040160016101000a81548173ffffffffffffffffffffffffffffffffffffffff021916908373ffffffffffffffffffffffffffffffffffffffff16021790555060c0820151816005015590505060056000828152602001908152602001600020600601600081548092919061081090612a52565b91905055503373ffffffffffffffffffffffffffffffffffffffff166008547f70cfaaca875819a9a3e4dafaa0e4d0aa1a27fc3942530d98e28008f02a3688958560405161085e9190612d78565b60405180910390a3600854915050919050565b600960009054906101000a900473ffffffffffffffffffffffffffffffffffffffff1673ffffffffffffffffffffffffffffffffffffffff163373ffffffffffffffffffffffffffffffffffffffff1614610901576040517f08c379a00000000000000000000000000000000000000000000000000000000081526004016108f890612997565b60405180910390fd5b60008083815260200190815260200160002060040160009054906101000a900460ff1615610964576040517f08c379a000000000000000000000000000000000000000000000000000000000815260040161095b90612de6565b60405180910390fd5b8060008084815260200190815260200160002060040160016101000a81548173ffffffffffffffffffffffffffffffffffffffff021916908373ffffffffffffffffffffffffffffffffffffffff1602179055508073ffffffffffffffffffffffffffffffffffffffff16827f118ed37f7aa20e8545ebd3105e00c91d50e7c5346bf9372336460793798b7e7760405160405180910390a35050565b60046020528160005260406000208181548110610a1c57600080fd5b9060005260206000209060050201600091509150508060000160009054906101000a900473ffffffffffffffffffffffffffffffffffffffff16908060010160009054906101000a900473ffffffffffffffffffffffffffffffffffffffff16908060020154908060030154908060040160009054906101000a900460ff16905085565b600160003373ffffffffffffffffffffffffffffffffffffffff1673ffffffffffffffffffffffffffffffffffffffff16815260200190815260200160002060009054906101000a900460ff16610b2c576040517f08c379a0000000000000000000000000000000000000000000000000000000008152600401610b2390612e52565b60405180910390fd5b604051806080016040528083815260200182815260200142815260200160011515815250600260003373ffffffffffffffffffffffffffffffffffffffff1673ffffffffffffffffffffffffffffffffffffffff16815260200190815260200160002060008201518160000155602082015181600101556040820151816002015560608201518160030160006101000a81548160ff0219169083151502179055509050503373ffffffffffffffffffffffffffffffffffffffff167f210dc5b8e06e65f95a44396580e60cb11b443a81730701d13565aaac4b624e888383604051610c18929190612e72565b60405180910390a25050565b600960009054906101000a900473ffffffffffffffffffffffffffffffffffffffff1673ffffffffffffffffffffffffffffffffffffffff163373ffffffffffffffffffffffffffffffffffffffff1614610cb4576040517f08c379a0000000000000000000000000000000000000000000000000000000008152600401610cab90612997565b60405180910390fd5b80600a8190555050565b60085481565b610ccc611dcc565b600560008381526020019081526020016000206040518060e0016040529081600082015481526020016001820160009054906101000a900473ffffffffffffffffffffffffffffffffffffffff1673ffffffffffffffffffffffffffffffffffffffff1673ffffffffffffffffffffffffffffffffffffffff168152602001600282018054610d5a90612ac9565b80601f0160208091040260200160405190810160405280929190818152602001828054610d8690612ac9565b8015610dd35780601f10610da857610100808354040283529160200191610dd3565b820191906000526020600020905b815481529060010190602001808311610db657829003601f168201915b50505050508152602001600382018054610dec90612ac9565b80601f0160208091040260200160405190810160405280929190818152602001828054610e1890612ac9565b8015610e655780601f10610e3a57610100808354040283529160200191610e65565b820191906000526020600020905b815481529060010190602001808311610e4857829003601f168201915b50505050508152602001600482015481526020016005820160009054906101000a900460ff161515151581526020016006820154815250509050919050565b600080600660003373ffffffffffffffffffffffffffffffffffffffff1673ffffffffffffffffffffffffffffffffffffffff1681526020019081526020016000205414610f27576040517f08c379a0000000000000000000000000000000000000000000000000000000008152600401610f1e90612ee7565b60405180910390fd5b60076000815480929190610f3a90612a52565b9190505550600060075490506040518060e001604052808281526020013373ffffffffffffffffffffffffffffffffffffffff1681526020018581526020018481526020014281526020016001151581526020016000815250600560008381526020019081526020016000206000820151816000015560208201518160010160006101000a81548173ffffffffffffffffffffffffffffffffffffffff021916908373ffffffffffffffffffffffffffffffffffffffff160217905550604082015181600201908161100c9190612ca6565b5060608201518160030190816110229190612ca6565b506080820151816004015560a08201518160050160006101000a81548160ff02191690831515021790555060c0820151816006015590505080600660003373ffffffffffffffffffffffffffffffffffffffff1673ffffffffffffffffffffffffffffffffffffffff168152602001908152602001600020819055503373ffffffffffffffffffffffffffffffffffffffff16817fe960aa893775ad9187a8fc84e3a4750f46f677c7e4f410b0d77faad875966603866040516110e59190612d78565b60405180910390a38091505092915050565b606060046000838152602001908152602001600020805480602002602001604051908101604052809291908181526020016000905b8282101561123957838290600052602060002090600502016040518060a00160405290816000820160009054906101000a900473ffffffffffffffffffffffffffffffffffffffff1673ffffffffffffffffffffffffffffffffffffffff1673ffffffffffffffffffffffffffffffffffffffff1681526020016001820160009054906101000a900473ffffffffffffffffffffffffffffffffffffffff1673ffffffffffffffffffffffffffffffffffffffff1673ffffffffffffffffffffffffffffffffffffffff16815260200160028201548152602001600382015481526020016004820160009054906101000a900460ff1615151515815250508152602001906001019061112c565b505050509050919050565b60056020528060005260406000206000915090508060000154908060010160009054906101000a900473ffffffffffffffffffffffffffffffffffffffff169080600201805461129390612ac9565b80601f01602080910402602001604051908101604052809291908181526020018280546112bf90612ac9565b801561130c5780601f106112e15761010080835404028352916020019161130c565b820191906000526020600020905b8154815290600101906020018083116112ef57829003601f168201915b50505050509080600301805461132190612ac9565b80601f016020809104026020016040519081016040528092919081815260200182805461134d90612ac9565b801561139a5780601f1061136f5761010080835404028352916020019161139a565b820191906000526020600020905b81548152906001019060200180831161137d57829003601f168201915b5050505050908060040154908060050160009054906101000a900460ff16908060060154905087565b60006020528060005260406000206000915090508060000154908060010160009054906101000a900473ffffffffffffffffffffffffffffffffffffffff169080600201805461141290612ac9565b80601f016020809104026020016040519081016040528092919081815260200182805461143e90612ac9565b801561148b5780601f106114605761010080835404028352916020019161148b565b820191906000526020600020905b81548152906001019060200180831161146e57829003601f168201915b5050505050908060030154908060040160009054906101000a900460ff16908060040160019054906101000a900473ffffffffffffffffffffffffffffffffffffffff16908060050154905087565b60066020528060005260406000206000915090505481565b60075481565b6003602052816000526040600020818154811061151457600080fd5b906000526020600020016000915091509054906101000a900473ffffffffffffffffffffffffffffffffffffffff1681565b3373ffffffffffffffffffffffffffffffffffffffff1660008083815260200190815260200160002060040160019054906101000a900473ffffffffffffffffffffffffffffffffffffffff1673ffffffffffffffffffffffffffffffffffffffff16146115e9576040517f08c379a00000000000000000000000000000000000000000000000000000000081526004016115e090612f53565b60405180910390fd5b600160008083815260200190815260200160002060040160006101000a81548160ff021916908315150217905550807f664e0ac733688d2c057290d21ec5d50c17a869ea988cb0585a7296acf057490760405160405180910390a250565b600960009054906101000a900473ffffffffffffffffffffffffffffffffffffffff1673ffffffffffffffffffffffffffffffffffffffff163373ffffffffffffffffffffffffffffffffffffffff16146116d7576040517f08c379a00000000000000000000000000000000000000000000000000000000081526004016116ce90612997565b60405180910390fd5b60008084815260200190815260200160002060040160009054906101000a900460ff161561173a576040517f08c379a000000000000000000000000000000000000000000000000000000000815260040161173190612fbf565b60405180910390fd5b6000601467ffffffffffffffff81111561175757611756611fb8565b5b6040519080825280602002602001820160405280156117855781602001602082028036833780820191505090505b5090506000805b600854811015611b4f57600080600083815260200190815260200160002060040160019054906101000a900473ffffffffffffffffffffffffffffffffffffffff169050600160008273ffffffffffffffffffffffffffffffffffffffff1673ffffffffffffffffffffffffffffffffffffffff16815260200190815260200160002060009054906101000a900460ff1680156118755750600260008273ffffffffffffffffffffffffffffffffffffffff1673ffffffffffffffffffffffffffffffffffffffff16815260200190815260200160002060030160009054906101000a900460ff165b15611b3b57600061190c8787600260008673ffffffffffffffffffffffffffffffffffffffff1673ffffffffffffffffffffffffffffffffffffffff16815260200190815260200160002060000154600260008773ffffffffffffffffffffffffffffffffffffffff1673ffffffffffffffffffffffffffffffffffffffff16815260200190815260200160002060010154611d70565b9050600a5481131580156119205750601484105b15611b39578185858151811061193957611938612fdf565b5b602002602001019073ffffffffffffffffffffffffffffffffffffffff16908173ffffffffffffffffffffffffffffffffffffffff168152505060006040518060a001604052808473ffffffffffffffffffffffffffffffffffffffff1681526020013373ffffffffffffffffffffffffffffffffffffffff1681526020018a8152602001428152602001600115158152509050600460008a815260200190815260200160002081908060018154018082558091505060019003906000526020600020906005020160009091909190915060008201518160000160006101000a81548173ffffffffffffffffffffffffffffffffffffffff021916908373ffffffffffffffffffffffffffffffffffffffff16021790555060208201518160010160006101000a81548173ffffffffffffffffffffffffffffffffffffffff021916908373ffffffffffffffffffffffffffffffffffffffff160217905550604082015181600201556060820151816003015560808201518160040160006101000a81548160ff02191690831515021790555050503373ffffffffffffffffffffffffffffffffffffffff168373ffffffffffffffffffffffffffffffffffffffff168a7feb90724b9172416695f5814055dc73259d21caf3e07548142ecbd16ae11739bc60405160405180910390a48480611b3490612a52565b955050505b505b508080611b4790612a52565b91505061178c565b5081600360008781526020019081526020016000209080519060200190611b77929190611e21565b50847f52071289be1fba0cef499ae110be435106479a3eb0e8c5ec97d1669405ee9c3382604051611ba89190612145565b60405180910390a25050505050565b606060036000838152602001908152602001600020805480602002602001604051908101604052809291908181526020018280548015611c4c57602002820191906000526020600020905b8160009054906101000a900473ffffffffffffffffffffffffffffffffffffffff1673ffffffffffffffffffffffffffffffffffffffff1681526020019060010190808311611c02575b50505050509050919050565b600a5481565b6000600660003373ffffffffffffffffffffffffffffffffffffffff1673ffffffffffffffffffffffffffffffffffffffff16815260200190815260200160002054905060008103611ce5576040517f08c379a0000000000000000000000000000000000000000000000000000000008152600401611cdc90612a03565b60405180910390fd5b81600560008381526020019081526020016000206003019081611d089190612ca6565b505050565b60026020528060005260406000206000915090508060000154908060010154908060020154908060030160009054906101000a900460ff16905084565b600960009054906101000a900473ffffffffffffffffffffffffffffffffffffffff1681565b6000808386611d7f919061300e565b905060008386611d8f919061300e565b90506103e88182611da09190613051565b8384611dac9190613051565b611db691906130c9565b611dc0919061313c565b92505050949350505050565b6040518060e0016040528060008152602001600073ffffffffffffffffffffffffffffffffffffffff168152602001606081526020016060815260200160008152602001600015158152602001600081525090565b828054828255906000526020600020908101928215611e9a579160200282015b82811115611e995782518260006101000a81548173ffffffffffffffffffffffffffffffffffffffff021916908373ffffffffffffffffffffffffffffffffffffffff16021790555091602001919060010190611e41565b5b509050611ea79190611eab565b5090565b5b80821115611ec4576000816000905550600101611eac565b5090565b6000604051905090565b600080fd5b600080fd5b600073ffffffffffffffffffffffffffffffffffffffff82169050919050565b6000611f0782611edc565b9050919050565b611f1781611efc565b8114611f2257600080fd5b50565b600081359050611f3481611f0e565b92915050565b600060208284031215611f5057611f4f611ed2565b5b6000611f5e84828501611f25565b91505092915050565b60008115159050919050565b611f7c81611f67565b82525050565b6000602082019050611f976000830184611f73565b92915050565b600080fd5b600080fd5b6000601f19601f8301169050919050565b7f4e487b7100000000000000000000000000000000000000000000000000000000600052604160045260246000fd5b611ff082611fa7565b810181811067ffffffffffffffff8211171561200f5761200e611fb8565b5b80604052505050565b6000612022611ec8565b905061202e8282611fe7565b919050565b600067ffffffffffffffff82111561204e5761204d611fb8565b5b61205782611fa7565b9050602081019050919050565b82818337600083830152505050565b600061208661208184612033565b612018565b9050828152602081018484840111156120a2576120a1611fa2565b5b6120ad848285612064565b509392505050565b600082601f8301126120ca576120c9611f9d565b5b81356120da848260208601612073565b91505092915050565b6000602082840312156120f9576120f8611ed2565b5b600082013567ffffffffffffffff81111561211757612116611ed7565b5b612123848285016120b5565b91505092915050565b6000819050919050565b61213f8161212c565b82525050565b600060208201905061215a6000830184612136565b92915050565b6121698161212c565b811461217457600080fd5b50565b60008135905061218681612160565b92915050565b600080604083850312156121a3576121a2611ed2565b5b60006121b185828601612177565b92505060206121c285828601611f25565b9150509250929050565b600080604083850312156121e3576121e2611ed2565b5b60006121f185828601612177565b925050602061220285828601612177565b9150509250929050565b61221581611efc565b82525050565b600060a082019050612230600083018861220c565b61223d602083018761220c565b61224a6040830186612136565b6122576060830185612136565b6122646080830184611f73565b9695505050505050565b6000819050919050565b6122818161226e565b811461228c57600080fd5b50565b60008135905061229e81612278565b92915050565b600080604083850312156122bb576122ba611ed2565b5b60006122c98582860161228f565b92505060206122da8582860161228f565b9150509250929050565b6000602082840312156122fa576122f9611ed2565b5b60006123088482850161228f565b91505092915050565b60006020828403121561232757612326611ed2565b5b600061233584828501612177565b91505092915050565b6123478161212c565b82525050565b61235681611efc565b82525050565b600081519050919050565b600082825260208201905092915050565b60005b8381101561239657808201518184015260208101905061237b565b60008484015250505050565b60006123ad8261235c565b6123b78185612367565b93506123c7818560208601612378565b6123d081611fa7565b840191505092915050565b6123e481611f67565b82525050565b600060e083016000830151612402600086018261233e565b506020830151612415602086018261234d565b506040830151848203604086015261242d82826123a2565b9150506060830151848203606086015261244782826123a2565b915050608083015161245c608086018261233e565b5060a083015161246f60a08601826123db565b5060c083015161248260c086018261233e565b508091505092915050565b600060208201905081810360008301526124a781846123ea565b905092915050565b600080604083850312156124c6576124c5611ed2565b5b600083013567ffffffffffffffff8111156124e4576124e3611ed7565b5b6124f0858286016120b5565b925050602083013567ffffffffffffffff81111561251157612510611ed7565b5b61251d858286016120b5565b9150509250929050565b600081519050919050565b600082825260208201905092915050565b6000819050602082019050919050565b60a082016000820151612569600085018261234d565b50602082015161257c602085018261234d565b50604082015161258f604085018261233e565b5060608201516125a2606085018261233e565b5060808201516125b560808501826123db565b50505050565b60006125c78383612553565b60a08301905092915050565b6000602082019050919050565b60006125eb82612527565b6125f58185612532565b935061260083612543565b8060005b8381101561263157815161261888826125bb565b9750612623836125d3565b925050600181019050612604565b5085935050505092915050565b6000602082019050818103600083015261265881846125e0565b905092915050565b600082825260208201905092915050565b600061267c8261235c565b6126868185612660565b9350612696818560208601612378565b61269f81611fa7565b840191505092915050565b600060e0820190506126bf600083018a612136565b6126cc602083018961220c565b81810360408301526126de8188612671565b905081810360608301526126f28187612671565b90506127016080830186612136565b61270e60a0830185611f73565b61271b60c0830184612136565b98975050505050505050565b600060e08201905061273c600083018a612136565b612749602083018961220c565b818103604083015261275b8188612671565b905061276a6060830187612136565b6127776080830186611f73565b61278460a083018561220c565b61279160c0830184612136565b98975050505050505050565b60006020820190506127b2600083018461220c565b92915050565b6000806000606084860312156127d1576127d0611ed2565b5b60006127df86828701612177565b93505060206127f08682870161228f565b92505060406128018682870161228f565b9150509250925092565b600081519050919050565b600082825260208201905092915050565b6000819050602082019050919050565b6000612843838361234d565b60208301905092915050565b6000602082019050919050565b60006128678261280b565b6128718185612816565b935061287c83612827565b8060005b838110156128ad5781516128948882612837565b975061289f8361284f565b925050600181019050612880565b5085935050505092915050565b600060208201905081810360008301526128d4818461285c565b905092915050565b6128e58161226e565b82525050565b600060208201905061290060008301846128dc565b92915050565b600060808201905061291b60008301876128dc565b61292860208301866128dc565b6129356040830185612136565b6129426060830184611f73565b95945050505050565b7f4f6e6c792061646d696e00000000000000000000000000000000000000000000600082015250565b6000612981600a83612660565b915061298c8261294b565b602082019050919050565b600060208201905081810360008301526129b081612974565b9050919050565b7f50617469656e74206e6f74207265676973746572656400000000000000000000600082015250565b60006129ed601683612660565b91506129f8826129b7565b602082019050919050565b60006020820190508181036000830152612a1c816129e0565b9050919050565b7f4e487b7100000000000000000000000000000000000000000000000000000000600052601160045260246000fd5b6000612a5d8261212c565b91507fffffffffffffffffffffffffffffffffffffffffffffffffffffffffffffffff8203612a8f57612a8e612a23565b5b600182019050919050565b7f4e487b7100000000000000000000000000000000000000000000000000000000600052602260045260246000fd5b60006002820490506001821680612ae157607f821691505b602082108103612af457612af3612a9a565b5b50919050565b60008190508160005260206000209050919050565b60006020601f8301049050919050565b600082821b905092915050565b600060088302612b5c7fffffffffffffffffffffffffffffffffffffffffffffffffffffffffffffffff82612b1f565b612b668683612b1f565b95508019841693508086168417925050509392505050565b6000819050919050565b6000612ba3612b9e612b998461212c565b612b7e565b61212c565b9050919050565b6000819050919050565b612bbd83612b88565b612bd1612bc982612baa565b848454612b2c565b825550505050565b600090565b612be6612bd9565b612bf1818484612bb4565b505050565b5b81811015612c1557612c0a600082612bde565b600181019050612bf7565b5050565b601f821115612c5a57612c2b81612afa565b612c3484612b0f565b81016020851015612c43578190505b612c57612c4f85612b0f565b830182612bf6565b50505b505050565b600082821c905092915050565b6000612c7d60001984600802612c5f565b1980831691505092915050565b6000612c968383612c6c565b9150826002028217905092915050565b612caf8261235c565b67ffffffffffffffff811115612cc857612cc7611fb8565b5b612cd28254612ac9565b612cdd828285612c19565b600060209050601f831160018114612d105760008415612cfe578287015190505b612d088582612c8a565b865550612d70565b601f198416612d1e86612afa565b60005b82811015612d4657848901518255600182019150602085019450602081019050612d21565b86831015612d635784890151612d5f601f891682612c6c565b8355505b6001600288020188555050505b505050505050565b60006020820190508181036000830152612d928184612671565b905092915050565b7f416c7265616479207265736f6c76656400000000000000000000000000000000600082015250565b6000612dd0601083612660565b9150612ddb82612d9a565b602082019050919050565b60006020820190508181036000830152612dff81612dc3565b9050919050565b7f4e6f74207265676973746572656420616d62756c616e63650000000000000000600082015250565b6000612e3c601883612660565b9150612e4782612e06565b602082019050919050565b60006020820190508181036000830152612e6b81612e2f565b9050919050565b6000604082019050612e8760008301856128dc565b612e9460208301846128dc565b9392505050565b7f50617469656e7420616c72656164792072656769737465726564000000000000600082015250565b6000612ed1601a83612660565b9150612edc82612e9b565b602082019050919050565b60006020820190508181036000830152612f0081612ec4565b9050919050565b7f4e6f742061737369676e65640000000000000000000000000000000000000000600082015250565b6000612f3d600c83612660565b9150612f4882612f07565b602082019050919050565b60006020820190508181036000830152612f6c81612f30565b9050919050565b7f456d657267656e637920616c7265616479207265736f6c766564000000000000600082015250565b6000612fa9601a83612660565b9150612fb482612f73565b602082019050919050565b60006020820190508181036000830152612fd881612f9c565b9050919050565b7f4e487b7100000000000000000000000000000000000000000000000000000000600052603260045260246000fd5b60006130198261226e565b91506130248361226e565b925082820390508181126000841216828213600085121516171561304b5761304a612a23565b5b92915050565b600061305c8261226e565b91506130678361226e565b92508282026130758161226e565b91507f800000000000000000000000000000000000000000000000000000000000000084146000841216156130ad576130ac612a23565b5b82820584148315176130c2576130c1612a23565b5b5092915050565b60006130d48261226e565b91506130df8361226e565b92508282019050828112156000831216838212600084121516171561310757613106612a23565b5b92915050565b7f4e487b7100000000000000000000000000000000000000000000000000000000600052601260045260246000fd5b60006131478261226e565b91506131528361226e565b9250826131625761316161310d565b5b600160000383147f80000000000000000000000000000000000000000000000000000000000000008314161561319b5761319a612a23565b5b82820590509291505056fea26469706673582212205f114a65f1075ddbbebf7d01a9ed29dc873c5a5ced10ecd2916022b209bf3b5064736f6c63430008130033",
  "linkReferences": {},
  "deployedLinkReferences": {}
}